{
  "contractName": "Market",
  "abi": [
    {
      "anonymous": false,
      "inputs": [
        {
          "indexed": false,
          "internalType": "uint256",
          "name": "listingId",
          "type": "uint256"
        },
        {
          "indexed": false,
          "internalType": "address",
          "name": "seller",
          "type": "address"
        }
      ],
      "name": "Cancel",
      "type": "event"
    },
    {
      "anonymous": false,
      "inputs": [
        {
          "indexed": false,
          "internalType": "uint256",
          "name": "listingId",
          "type": "uint256"
        },
        {
          "indexed": false,
          "internalType": "address",
          "name": "seller",
          "type": "address"
        },
        {
          "indexed": false,
          "internalType": "address",
          "name": "token",
          "type": "address"
        },
        {
          "indexed": false,
          "internalType": "uint256",
          "name": "tokenId",
          "type": "uint256"
        },
        {
          "indexed": false,
          "internalType": "uint256",
          "name": "price",
          "type": "uint256"
        }
      ],
      "name": "Listed",
      "type": "event"
    },
    {
      "anonymous": false,
      "inputs": [
        {
          "indexed": false,
          "internalType": "uint256",
          "name": "listingId",
          "type": "uint256"
        },
        {
          "indexed": false,
          "internalType": "address",
          "name": "buyer",
          "type": "address"
        },
        {
          "indexed": false,
          "internalType": "address",
          "name": "token",
          "type": "address"
        },
        {
          "indexed": false,
          "internalType": "uint256",
          "name": "tokenId",
          "type": "uint256"
        },
        {
          "indexed": false,
          "internalType": "uint256",
          "name": "price",
          "type": "uint256"
        }
      ],
      "name": "Sale",
      "type": "event"
    },
    {
      "inputs": [
        {
          "internalType": "address",
          "name": "",
          "type": "address"
        },
        {
          "internalType": "address",
          "name": "",
          "type": "address"
        },
        {
          "internalType": "uint256",
          "name": "",
          "type": "uint256"
        },
        {
          "internalType": "bytes",
          "name": "",
          "type": "bytes"
        }
      ],
      "name": "onERC721Received",
      "outputs": [
        {
          "internalType": "bytes4",
          "name": "",
          "type": "bytes4"
        }
      ],
      "stateMutability": "nonpayable",
      "type": "function"
    },
    {
      "inputs": [
        {
          "internalType": "address",
          "name": "token",
          "type": "address"
        },
        {
          "internalType": "uint256",
          "name": "tokenID",
          "type": "uint256"
        },
        {
          "internalType": "uint256",
          "name": "price",
          "type": "uint256"
        }
      ],
      "name": "ListToken",
      "outputs": [],
      "stateMutability": "nonpayable",
      "type": "function"
    },
    {
      "inputs": [
        {
          "internalType": "uint256",
          "name": "listingId",
          "type": "uint256"
        }
      ],
      "name": "getListing",
      "outputs": [
        {
          "components": [
            {
              "internalType": "enum Market.ListStatus",
              "name": "status",
              "type": "uint8"
            },
            {
              "internalType": "address",
              "name": "seller",
              "type": "address"
            },
            {
              "internalType": "address",
              "name": "token",
              "type": "address"
            },
            {
              "internalType": "uint256",
              "name": "tokenID",
              "type": "uint256"
            },
            {
              "internalType": "uint256",
              "name": "price",
              "type": "uint256"
            }
          ],
          "internalType": "struct Market.List",
          "name": "",
          "type": "tuple"
        }
      ],
      "stateMutability": "view",
      "type": "function",
      "constant": true
    },
    {
      "inputs": [
        {
          "internalType": "uint256",
          "name": "listingId",
          "type": "uint256"
        }
      ],
      "name": "BuyToken",
      "outputs": [],
      "stateMutability": "payable",
      "type": "function",
      "payable": true
    },
    {
      "inputs": [
        {
          "internalType": "uint256",
          "name": "listingID",
          "type": "uint256"
        }
      ],
      "name": "cancel",
      "outputs": [],
      "stateMutability": "nonpayable",
      "type": "function"
    }
  ],
  "bytecode": "0x60806040526000805534801561001457600080fd5b50611573806100246000396000f3fe608060405260043610610067576000357c010000000000000000000000000000000000000000000000000000000090048063107a274a1461006c578063150b7a02146100a95780631f6182c4146100e657806340e58ee51461010f578063fcb0368c14610138575b600080fd5b34801561007857600080fd5b50610093600480360381019061008e9190610c7e565b610154565b6040516100a09190610dda565b60405180910390f35b3480156100b557600080fd5b506100d060048036038101906100cb9190610f67565b61027c565b6040516100dd9190611025565b60405180910390f35b3480156100f257600080fd5b5061010d60048036038101906101089190611040565b6102ac565b005b34801561011b57600080fd5b5061013660048036038101906101319190610c7e565b6105ec565b005b610152600480360381019061014d9190610c7e565b61082a565b005b61015c610bc7565b600160008381526020019081526020016000206040518060a00160405290816000820160009054906101000a900460ff16600281111561019f5761019e610cab565b5b60028111156101b1576101b0610cab565b5b81526020016000820160019054906101000a900473ffffffffffffffffffffffffffffffffffffffff1673ffffffffffffffffffffffffffffffffffffffff1673ffffffffffffffffffffffffffffffffffffffff1681526020016001820160009054906101000a900473ffffffffffffffffffffffffffffffffffffffff1673ffffffffffffffffffffffffffffffffffffffff1673ffffffffffffffffffffffffffffffffffffffff168152602001600282015481526020016003820154815250509050919050565b600063150b7a027c0100000000000000000000000000000000000000000000000000000000029050949350505050565b3373ffffffffffffffffffffffffffffffffffffffff168373ffffffffffffffffffffffffffffffffffffffff16636352211e846040518263ffffffff167c010000000000000000000000000000000000000000000000000000000002815260040161031891906110a2565b602060405180830381865afa158015610335573d6000803e3d6000fd5b505050506040513d601f19601f8201168201806040525081019061035991906110d2565b73ffffffffffffffffffffffffffffffffffffffff16146103af576040517f08c379a00000000000000000000000000000000000000000000000000000000081526004016103a69061115c565b60405180910390fd5b8273ffffffffffffffffffffffffffffffffffffffff166342842e0e3330856040518463ffffffff167c01000000000000000000000000000000000000000000000000000000000281526004016104089392919061118b565b600060405180830381600087803b15801561042257600080fd5b505af1158015610436573d6000803e3d6000fd5b5050505060006040518060a001604052806000600281111561045b5761045a610cab565b5b81526020013373ffffffffffffffffffffffffffffffffffffffff1681526020018573ffffffffffffffffffffffffffffffffffffffff1681526020018481526020018381525090506000808154809291906104b6906111f1565b919050555080600160008054815260200190815260200160002060008201518160000160006101000a81548160ff021916908360028111156104fb576104fa610cab565b5b021790555060208201518160000160016101000a81548173ffffffffffffffffffffffffffffffffffffffff021916908373ffffffffffffffffffffffffffffffffffffffff16021790555060408201518160010160006101000a81548173ffffffffffffffffffffffffffffffffffffffff021916908373ffffffffffffffffffffffffffffffffffffffff16021790555060608201518160020155608082015181600301559050507f723f73331eaee88eec7fc68ef60ab6ed15e4b90d0472b55eb92fa43910bab6dd600054338686866040516105de959493929190611239565b60405180910390a150505050565b60006001600083815260200190815260200160002090508060000160019054906101000a900473ffffffffffffffffffffffffffffffffffffffff1673ffffffffffffffffffffffffffffffffffffffff163373ffffffffffffffffffffffffffffffffffffffff1614610695576040517f08c379a000000000000000000000000000000000000000000000000000000000815260040161068c906112d8565b60405180910390fd5b600060028111156106a9576106a8610cab565b5b8160000160009054906101000a900460ff1660028111156106cd576106cc610cab565b5b1461070d576040517f08c379a000000000000000000000000000000000000000000000000000000000815260040161070490611344565b60405180910390fd5b60028160000160006101000a81548160ff0219169083600281111561073557610734610cab565b5b02179055508060010160009054906101000a900473ffffffffffffffffffffffffffffffffffffffff1673ffffffffffffffffffffffffffffffffffffffff166342842e0e303384600201546040518463ffffffff167c01000000000000000000000000000000000000000000000000000000000281526004016107bb9392919061118b565b600060405180830381600087803b1580156107d557600080fd5b505af11580156107e9573d6000803e3d6000fd5b505050507f8dd3c361eb2366ff27c2db0eb07b9261f1d052570742ab8c9a0c326f37aa576d823360405161081e929190611364565b60405180910390a15050565b600060016000838152602001908152602001600020905060028081111561085457610853610cab565b5b8160000160009054906101000a900460ff16600281111561087857610877610cab565b5b036108b8576040517f08c379a00000000000000000000000000000000000000000000000000000000081526004016108af906113d9565b60405180910390fd5b600160028111156108cc576108cb610cab565b5b8160000160009054906101000a900460ff1660028111156108f0576108ef610cab565b5b03610930576040517f08c379a000000000000000000000000000000000000000000000000000000000815260040161092790611445565b60405180910390fd5b8060000160019054906101000a900473ffffffffffffffffffffffffffffffffffffffff1673ffffffffffffffffffffffffffffffffffffffff163373ffffffffffffffffffffffffffffffffffffffff16036109c2576040517f08c379a00000000000000000000000000000000000000000000000000000000081526004016109b9906114b1565b60405180910390fd5b8060030154341015610a09576040517f08c379a0000000000000000000000000000000000000000000000000000000008152600401610a009061151d565b60405180910390fd5b8060010160009054906101000a900473ffffffffffffffffffffffffffffffffffffffff1673ffffffffffffffffffffffffffffffffffffffff166342842e0e303384600201546040518463ffffffff167c0100000000000000000000000000000000000000000000000000000000028152600401610a8a9392919061118b565b600060405180830381600087803b158015610aa457600080fd5b505af1158015610ab8573d6000803e3d6000fd5b505050508060000160019054906101000a900473ffffffffffffffffffffffffffffffffffffffff1673ffffffffffffffffffffffffffffffffffffffff166108fc82600301549081150290604051600060405180830381858888f19350505050158015610b2a573d6000803e3d6000fd5b5060018160000160006101000a81548160ff02191690836002811115610b5357610b52610cab565b5b02179055507ff3debaf22196a6ddf52a60fa71058cd7edf5e25bb98f4e96c994a5d4a9b0dd3e82338360010160009054906101000a900473ffffffffffffffffffffffffffffffffffffffff1684600201548560030154604051610bbb959493929190611239565b60405180910390a15050565b6040518060a0016040528060006002811115610be657610be5610cab565b5b8152602001600073ffffffffffffffffffffffffffffffffffffffff168152602001600073ffffffffffffffffffffffffffffffffffffffff16815260200160008152602001600081525090565b6000604051905090565b600080fd5b600080fd5b6000819050919050565b610c5b81610c48565b8114610c6657600080fd5b50565b600081359050610c7881610c52565b92915050565b600060208284031215610c9457610c93610c3e565b5b6000610ca284828501610c69565b91505092915050565b7f4e487b7100000000000000000000000000000000000000000000000000000000600052602160045260246000fd5b60038110610ceb57610cea610cab565b5b50565b6000819050610cfc82610cda565b919050565b6000610d0c82610cee565b9050919050565b610d1c81610d01565b82525050565b600073ffffffffffffffffffffffffffffffffffffffff82169050919050565b6000610d4d82610d22565b9050919050565b610d5d81610d42565b82525050565b610d6c81610c48565b82525050565b60a082016000820151610d886000850182610d13565b506020820151610d9b6020850182610d54565b506040820151610dae6040850182610d54565b506060820151610dc16060850182610d63565b506080820151610dd46080850182610d63565b50505050565b600060a082019050610def6000830184610d72565b92915050565b610dfe81610d42565b8114610e0957600080fd5b50565b600081359050610e1b81610df5565b92915050565b600080fd5b600080fd5b6000601f19601f8301169050919050565b7f4e487b7100000000000000000000000000000000000000000000000000000000600052604160045260246000fd5b610e7482610e2b565b810181811067ffffffffffffffff82111715610e9357610e92610e3c565b5b80604052505050565b6000610ea6610c34565b9050610eb28282610e6b565b919050565b600067ffffffffffffffff821115610ed257610ed1610e3c565b5b610edb82610e2b565b9050602081019050919050565b82818337600083830152505050565b6000610f0a610f0584610eb7565b610e9c565b905082815260208101848484011115610f2657610f25610e26565b5b610f31848285610ee8565b509392505050565b600082601f830112610f4e57610f4d610e21565b5b8135610f5e848260208601610ef7565b91505092915050565b60008060008060808587031215610f8157610f80610c3e565b5b6000610f8f87828801610e0c565b9450506020610fa087828801610e0c565b9350506040610fb187828801610c69565b925050606085013567ffffffffffffffff811115610fd257610fd1610c43565b5b610fde87828801610f39565b91505092959194509250565b60007fffffffff0000000000000000000000000000000000000000000000000000000082169050919050565b61101f81610fea565b82525050565b600060208201905061103a6000830184611016565b92915050565b60008060006060848603121561105957611058610c3e565b5b600061106786828701610e0c565b935050602061107886828701610c69565b925050604061108986828701610c69565b9150509250925092565b61109c81610c48565b82525050565b60006020820190506110b76000830184611093565b92915050565b6000815190506110cc81610df5565b92915050565b6000602082840312156110e8576110e7610c3e565b5b60006110f6848285016110bd565b91505092915050565b600082825260208201905092915050565b7f4f6e6c79204f6e7765722063616e206c697374204e4654000000000000000000600082015250565b60006111466017836110ff565b915061115182611110565b602082019050919050565b6000602082019050818103600083015261117581611139565b9050919050565b61118581610d42565b82525050565b60006060820190506111a0600083018661117c565b6111ad602083018561117c565b6111ba6040830184611093565b949350505050565b7f4e487b7100000000000000000000000000000000000000000000000000000000600052601160045260246000fd5b60006111fc82610c48565b91507fffffffffffffffffffffffffffffffffffffffffffffffffffffffffffffffff820361122e5761122d6111c2565b5b600182019050919050565b600060a08201905061124e6000830188611093565b61125b602083018761117c565b611268604083018661117c565b6112756060830185611093565b6112826080830184611093565b9695505050505050565b7f4f6e6c792073656c6c65722063616e2063616e63656c204c697374696e670000600082015250565b60006112c2601e836110ff565b91506112cd8261128c565b602082019050919050565b600060208201905081810360008301526112f1816112b5565b9050919050565b7f546865206974656d206973206e6f742061637469766500000000000000000000600082015250565b600061132e6016836110ff565b9150611339826112f8565b602082019050919050565b6000602082019050818103600083015261135d81611321565b9050919050565b60006040820190506113796000830185611093565b611386602083018461117c565b9392505050565b7f4e46542069732063616e63656c6c65642062792073656c6c6572000000000000600082015250565b60006113c3601a836110ff565b91506113ce8261138d565b602082019050919050565b600060208201905081810360008301526113f2816113b6565b9050919050565b7f4e465420697320736f6c64206f75740000000000000000000000000000000000600082015250565b600061142f600f836110ff565b915061143a826113f9565b602082019050919050565b6000602082019050818103600083015261145e81611422565b9050919050565b7f53656c6c65722063616e6e6f7420627579000000000000000000000000000000600082015250565b600061149b6011836110ff565b91506114a682611465565b602082019050919050565b600060208201905081810360008301526114ca8161148e565b9050919050565b7f496e76616c6964207061796d656e740000000000000000000000000000000000600082015250565b6000611507600f836110ff565b9150611512826114d1565b602082019050919050565b60006020820190508181036000830152611536816114fa565b905091905056fea26469706673582212205393a85725a97ebee86941c7329cd2543799a72b7a8a5b38ac41ae3cd7e2af3a64736f6c63430008130033",
  "immutableReferences": {},
  "source": "// SPDX-License-Identifier: MIT\n\npragma solidity ^0.8.19;\n\nimport \"@openzeppelin/contracts/token/ERC721/ERC721.sol\"; \nimport \"@openzeppelin/contracts/token/ERC721/IERC721Receiver.sol\";\nimport \"@openzeppelin/contracts/utils/Address.sol\";\nimport \"@openzeppelin/contracts/token/ERC721/utils/ERC721Holder.sol\";\n\ncontract Market is ERC721Holder{\n    enum ListStatus{\n        active,\n        sold,\n        cancelled\n    }\n    struct List{\n        ListStatus status;\n        address seller;\n        address token;\n        uint tokenID;\n        uint price;\n    }\n    \n    event Listed(\n        uint listingId,\n        address seller,\n        address token,\n        uint tokenId,\n        uint price\n    );\n    event Sale(\n        uint listingId,\n        address buyer,\n        address token,\n        uint tokenId,\n        uint price\n    );\n\n    event Cancel(\n        uint listingId,\n        address seller\n    );\n\n    uint private _listingId = 0;\n    mapping(uint => List) private _listings;\n\n    \n\n    function ListToken(address token, uint tokenID, uint price) external{\n        require(IERC721(token).ownerOf(tokenID) == msg.sender,\"Only Onwer can list NFT\");\n        ERC721(token).safeTransferFrom(msg.sender, address(this), tokenID);\n\n   \n        List memory listing= List(\n            ListStatus.active,\n            msg.sender,\n            token,\n            tokenID,\n            price\n        );\n        _listingId++;\n\n        _listings[_listingId] = listing;\n        emit Listed(\n            _listingId,\n            msg.sender,\n            token,\n            tokenID,\n            price\n        );\n    }\n    function getListing(uint listingId) public view returns(List memory){\n        return _listings[listingId];\n    }\n\n    function BuyToken(uint listingId) external payable{\n        List storage listing = _listings[listingId];\n\n        if (listing.status == ListStatus.cancelled){\n            revert(\"NFT is cancelled by seller\");\n        } \n        if (listing.status == ListStatus.sold){\n            revert(\"NFT is sold out\");\n        }   \n        if (msg.sender == listing.seller){\n            revert(\"Seller cannot buy\");\n        }\n\n        require(msg.value >= listing.price, \"Invalid payment\");\n        IERC721(listing.token).safeTransferFrom(address(this), msg.sender, listing.tokenID);\n        payable(listing.seller).transfer(listing.price);\n        listing.status = ListStatus.sold;\n        emit Sale(\n            listingId,\n            msg.sender,\n            listing.token,\n            listing.tokenID,\n            listing.price\n        );\n    }\n\n    function cancel(uint listingID) public{\n        List storage listing = _listings[listingID];\n        require(msg.sender == listing.seller,\"Only seller can cancel Listing\");\n        require(listing.status == ListStatus.active,\"The item is not active\");\n        listing.status = ListStatus.cancelled;\n        IERC721(listing.token).safeTransferFrom(address(this), msg.sender, listing.tokenID);\n        emit Cancel(listingID, msg.sender);\n    }\n}\n",
  "sourcePath": "/Users/fan/Desktop/NFT-Market/contracts/Market.sol",
  "compiler": {
    "name": "solc",
    "version": "0.8.19+commit.7dd6d404.Emscripten.clang"
  },
  "schemaVersion": "3.4.13",
  "updatedAt": "2023-05-07T08:26:44.161Z",
  "networkType": "ethereum",
  "devdoc": {
    "kind": "dev",
    "methods": {
      "onERC721Received(address,address,uint256,bytes)": {
        "details": "See {IERC721Receiver-onERC721Received}. Always returns `IERC721Receiver.onERC721Received.selector`."
      }
    },
    "version": 1
  },
  "userdoc": {
    "kind": "user",
    "methods": {},
    "version": 1
  }
}