{
  "contractName": "NFT",
  "abi": [
    {
      "inputs": [],
      "stateMutability": "nonpayable",
      "type": "constructor"
    },
    {
      "anonymous": false,
      "inputs": [
        {
          "indexed": true,
          "internalType": "address",
          "name": "owner",
          "type": "address"
        },
        {
          "indexed": true,
          "internalType": "address",
          "name": "approved",
          "type": "address"
        },
        {
          "indexed": true,
          "internalType": "uint256",
          "name": "tokenId",
          "type": "uint256"
        }
      ],
      "name": "Approval",
      "type": "event"
    },
    {
      "anonymous": false,
      "inputs": [
        {
          "indexed": true,
          "internalType": "address",
          "name": "owner",
          "type": "address"
        },
        {
          "indexed": true,
          "internalType": "address",
          "name": "operator",
          "type": "address"
        },
        {
          "indexed": false,
          "internalType": "bool",
          "name": "approved",
          "type": "bool"
        }
      ],
      "name": "ApprovalForAll",
      "type": "event"
    },
    {
      "anonymous": false,
      "inputs": [
        {
          "indexed": true,
          "internalType": "address",
          "name": "from",
          "type": "address"
        },
        {
          "indexed": true,
          "internalType": "address",
          "name": "to",
          "type": "address"
        },
        {
          "indexed": true,
          "internalType": "uint256",
          "name": "tokenId",
          "type": "uint256"
        }
      ],
      "name": "Transfer",
      "type": "event"
    },
    {
      "inputs": [
        {
          "internalType": "address",
          "name": "to",
          "type": "address"
        },
        {
          "internalType": "uint256",
          "name": "tokenId",
          "type": "uint256"
        }
      ],
      "name": "approve",
      "outputs": [],
      "stateMutability": "nonpayable",
      "type": "function"
    },
    {
      "inputs": [
        {
          "internalType": "address",
          "name": "owner",
          "type": "address"
        }
      ],
      "name": "balanceOf",
      "outputs": [
        {
          "internalType": "uint256",
          "name": "",
          "type": "uint256"
        }
      ],
      "stateMutability": "view",
      "type": "function",
      "constant": true
    },
    {
      "inputs": [
        {
          "internalType": "uint256",
          "name": "tokenId",
          "type": "uint256"
        }
      ],
      "name": "getApproved",
      "outputs": [
        {
          "internalType": "address",
          "name": "",
          "type": "address"
        }
      ],
      "stateMutability": "view",
      "type": "function",
      "constant": true
    },
    {
      "inputs": [
        {
          "internalType": "address",
          "name": "owner",
          "type": "address"
        },
        {
          "internalType": "address",
          "name": "operator",
          "type": "address"
        }
      ],
      "name": "isApprovedForAll",
      "outputs": [
        {
          "internalType": "bool",
          "name": "",
          "type": "bool"
        }
      ],
      "stateMutability": "view",
      "type": "function",
      "constant": true
    },
    {
      "inputs": [],
      "name": "name",
      "outputs": [
        {
          "internalType": "string",
          "name": "",
          "type": "string"
        }
      ],
      "stateMutability": "view",
      "type": "function",
      "constant": true
    },
    {
      "inputs": [
        {
          "internalType": "uint256",
          "name": "",
          "type": "uint256"
        }
      ],
      "name": "nfts",
      "outputs": [
        {
          "internalType": "string",
          "name": "name",
          "type": "string"
        },
        {
          "internalType": "string",
          "name": "description",
          "type": "string"
        }
      ],
      "stateMutability": "view",
      "type": "function",
      "constant": true
    },
    {
      "inputs": [
        {
          "internalType": "uint256",
          "name": "tokenId",
          "type": "uint256"
        }
      ],
      "name": "ownerOf",
      "outputs": [
        {
          "internalType": "address",
          "name": "",
          "type": "address"
        }
      ],
      "stateMutability": "view",
      "type": "function",
      "constant": true
    },
    {
      "inputs": [
        {
          "internalType": "address",
          "name": "from",
          "type": "address"
        },
        {
          "internalType": "address",
          "name": "to",
          "type": "address"
        },
        {
          "internalType": "uint256",
          "name": "tokenId",
          "type": "uint256"
        }
      ],
      "name": "safeTransferFrom",
      "outputs": [],
      "stateMutability": "nonpayable",
      "type": "function"
    },
    {
      "inputs": [
        {
          "internalType": "address",
          "name": "from",
          "type": "address"
        },
        {
          "internalType": "address",
          "name": "to",
          "type": "address"
        },
        {
          "internalType": "uint256",
          "name": "tokenId",
          "type": "uint256"
        },
        {
          "internalType": "bytes",
          "name": "data",
          "type": "bytes"
        }
      ],
      "name": "safeTransferFrom",
      "outputs": [],
      "stateMutability": "nonpayable",
      "type": "function"
    },
    {
      "inputs": [
        {
          "internalType": "address",
          "name": "operator",
          "type": "address"
        },
        {
          "internalType": "bool",
          "name": "approved",
          "type": "bool"
        }
      ],
      "name": "setApprovalForAll",
      "outputs": [],
      "stateMutability": "nonpayable",
      "type": "function"
    },
    {
      "inputs": [
        {
          "internalType": "bytes4",
          "name": "interfaceId",
          "type": "bytes4"
        }
      ],
      "name": "supportsInterface",
      "outputs": [
        {
          "internalType": "bool",
          "name": "",
          "type": "bool"
        }
      ],
      "stateMutability": "view",
      "type": "function",
      "constant": true
    },
    {
      "inputs": [],
      "name": "symbol",
      "outputs": [
        {
          "internalType": "string",
          "name": "",
          "type": "string"
        }
      ],
      "stateMutability": "view",
      "type": "function",
      "constant": true
    },
    {
      "inputs": [
        {
          "internalType": "uint256",
          "name": "tokenId",
          "type": "uint256"
        }
      ],
      "name": "tokenURI",
      "outputs": [
        {
          "internalType": "string",
          "name": "",
          "type": "string"
        }
      ],
      "stateMutability": "view",
      "type": "function",
      "constant": true
    },
    {
      "inputs": [
        {
          "internalType": "address",
          "name": "from",
          "type": "address"
        },
        {
          "internalType": "address",
          "name": "to",
          "type": "address"
        },
        {
          "internalType": "uint256",
          "name": "tokenId",
          "type": "uint256"
        }
      ],
      "name": "transferFrom",
      "outputs": [],
      "stateMutability": "nonpayable",
      "type": "function"
    },
    {
      "inputs": [
        {
          "internalType": "string",
          "name": "name",
          "type": "string"
        },
        {
          "internalType": "string",
          "name": "description",
          "type": "string"
        }
      ],
      "name": "createNFT",
      "outputs": [
        {
          "internalType": "uint256",
          "name": "",
          "type": "uint256"
        }
      ],
      "stateMutability": "nonpayable",
      "type": "function"
    },
    {
      "inputs": [
        {
          "internalType": "uint256",
          "name": "id",
          "type": "uint256"
        }
      ],
      "name": "getNFT",
      "outputs": [
        {
          "internalType": "string",
          "name": "",
          "type": "string"
        },
        {
          "internalType": "string",
          "name": "",
          "type": "string"
        }
      ],
      "stateMutability": "view",
      "type": "function",
      "constant": true
    }
  ],
  "bytecode": "0x608060405260006007553480156200001657600080fd5b506040518060400160405280600581526020017f4d794e46540000000000000000000000000000000000000000000000000000008152506040518060400160405280600381526020017f4e4654000000000000000000000000000000000000000000000000000000000081525081600090816200009491906200032f565b508060019081620000a691906200032f565b50505062000416565b600081519050919050565b7f4e487b7100000000000000000000000000000000000000000000000000000000600052604160045260246000fd5b7f4e487b7100000000000000000000000000000000000000000000000000000000600052602260045260246000fd5b600060028204905060018216806200013157607f821691505b602082108103620001475762000146620000e9565b5b50919050565b60008190508160005260206000209050919050565b60006020601f8301049050919050565b60008160020a8302905092915050565b600060088302620001b47fffffffffffffffffffffffffffffffffffffffffffffffffffffffffffffffff8262000172565b620001c0868362000172565b95508019841693508086168417925050509392505050565b6000819050919050565b6000819050919050565b60006200020d620002076200020184620001d8565b620001e2565b620001d8565b9050919050565b6000819050919050565b6200022983620001ec565b62000241620002388262000214565b84845462000182565b825550505050565b600090565b6200025862000249565b620002658184846200021e565b505050565b5b818110156200028d57620002816000826200024e565b6001810190506200026b565b5050565b601f821115620002dc57620002a6816200014d565b620002b18462000162565b81016020851015620002c1578190505b620002d9620002d08562000162565b8301826200026a565b50505b505050565b60008160020a8304905092915050565b60006200030460001984600802620002e1565b1980831691505092915050565b60006200031f8383620002f1565b9150826002028217905092915050565b6200033a82620000af565b67ffffffffffffffff811115620003565762000355620000ba565b5b62000362825462000118565b6200036f82828562000291565b600060209050601f831160018114620003a7576000841562000392578287015190505b6200039e858262000311565b8655506200040e565b601f198416620003b7866200014d565b60005b82811015620003e157848901518255600182019150602085019450602081019050620003ba565b86831015620004015784890151620003fd601f891682620002f1565b8355505b6001600288020188555050505b505050505050565b612db980620004266000396000f3fe608060405234801561001057600080fd5b506004361061011d576000357c0100000000000000000000000000000000000000000000000000000000900480636352211e116100b4578063a22cb46511610083578063a22cb46514610304578063b88d4fde14610320578063c87b56dd1461033c578063e985e9c51461036c5761011d565b80636352211e1461025657806368613d171461028657806370a08231146102b657806395d89b41146102e65761011d565b806323b872dd116100f057806323b872dd146101bc578063265aa621146101d857806342842e0e14610209578063576f7ea7146102255761011d565b806301ffc9a71461012257806306fdde0314610152578063081812fc14610170578063095ea7b3146101a0575b600080fd5b61013c60048036038101906101379190611bfe565b61039c565b6040516101499190611c46565b60405180910390f35b61015a61047e565b6040516101679190611cf1565b60405180910390f35b61018a60048036038101906101859190611d49565b610510565b6040516101979190611db7565b60405180910390f35b6101ba60048036038101906101b59190611dfe565b610556565b005b6101d660048036038101906101d19190611e3e565b61066d565b005b6101f260048036038101906101ed9190611d49565b6106cd565b604051610200929190611e91565b60405180910390f35b610223600480360381019061021e9190611e3e565b610801565b005b61023f600480360381019061023a9190611d49565b610821565b60405161024d929190611e91565b60405180910390f35b610270600480360381019061026b9190611d49565b6109bf565b60405161027d9190611db7565b60405180910390f35b6102a0600480360381019061029b9190611ffd565b610a45565b6040516102ad9190612084565b60405180910390f35b6102d060048036038101906102cb919061209f565b610acf565b6040516102dd9190612084565b60405180910390f35b6102ee610b86565b6040516102fb9190611cf1565b60405180910390f35b61031e600480360381019061031991906120f8565b610c18565b005b61033a600480360381019061033591906121d9565b610c2e565b005b61035660048036038101906103519190611d49565b610c90565b6040516103639190611cf1565b60405180910390f35b6103866004803603810190610381919061225c565b610cf8565b6040516103939190611c46565b60405180910390f35b60007f80ac58cd000000000000000000000000000000000000000000000000000000007bffffffffffffffffffffffffffffffffffffffffffffffffffffffff1916827bffffffffffffffffffffffffffffffffffffffffffffffffffffffff1916148061046757507f5b5e139f000000000000000000000000000000000000000000000000000000007bffffffffffffffffffffffffffffffffffffffffffffffffffffffff1916827bffffffffffffffffffffffffffffffffffffffffffffffffffffffff1916145b80610477575061047682610d8c565b5b9050919050565b60606000805461048d906122cb565b80601f01602080910402602001604051908101604052809291908181526020018280546104b9906122cb565b80156105065780601f106104db57610100808354040283529160200191610506565b820191906000526020600020905b8154815290600101906020018083116104e957829003601f168201915b5050505050905090565b600061051b82610df6565b6004600083815260200190815260200160002060009054906101000a900473ffffffffffffffffffffffffffffffffffffffff169050919050565b6000610561826109bf565b90508073ffffffffffffffffffffffffffffffffffffffff168373ffffffffffffffffffffffffffffffffffffffff16036105d1576040517f08c379a00000000000000000000000000000000000000000000000000000000081526004016105c89061236e565b60405180910390fd5b8073ffffffffffffffffffffffffffffffffffffffff166105f0610e41565b73ffffffffffffffffffffffffffffffffffffffff16148061061f575061061e81610619610e41565b610cf8565b5b61065e576040517f08c379a000000000000000000000000000000000000000000000000000000000815260040161065590612400565b60405180910390fd5b6106688383610e49565b505050565b61067e610678610e41565b82610f02565b6106bd576040517f08c379a00000000000000000000000000000000000000000000000000000000081526004016106b490612492565b60405180910390fd5b6106c8838383610f97565b505050565b60066020528060005260406000206000915090508060000180546106f0906122cb565b80601f016020809104026020016040519081016040528092919081815260200182805461071c906122cb565b80156107695780601f1061073e57610100808354040283529160200191610769565b820191906000526020600020905b81548152906001019060200180831161074c57829003601f168201915b50505050509080600101805461077e906122cb565b80601f01602080910402602001604051908101604052809291908181526020018280546107aa906122cb565b80156107f75780601f106107cc576101008083540402835291602001916107f7565b820191906000526020600020905b8154815290600101906020018083116107da57829003601f168201915b5050505050905082565b61081c83838360405180602001604052806000815250610c2e565b505050565b60608061082d83611290565b61086c576040517f08c379a0000000000000000000000000000000000000000000000000000000008152600401610863906124fe565b60405180910390fd5b600060066000858152602001908152602001600020600001805461088f906122cb565b80601f01602080910402602001604051908101604052809291908181526020018280546108bb906122cb565b80156109085780601f106108dd57610100808354040283529160200191610908565b820191906000526020600020905b8154815290600101906020018083116108eb57829003601f168201915b505050505090506000600660008681526020019081526020016000206001018054610932906122cb565b80601f016020809104026020016040519081016040528092919081815260200182805461095e906122cb565b80156109ab5780601f10610980576101008083540402835291602001916109ab565b820191906000526020600020905b81548152906001019060200180831161098e57829003601f168201915b505050505090508181935093505050915091565b6000806109cb836112d1565b9050600073ffffffffffffffffffffffffffffffffffffffff168173ffffffffffffffffffffffffffffffffffffffff1603610a3c576040517f08c379a0000000000000000000000000000000000000000000000000000000008152600401610a339061256a565b60405180910390fd5b80915050919050565b600060076000815480929190610a5a906125b9565b9190505550610a6b3360075461130e565b6040518060400160405280848152602001838152506006600060075481526020019081526020016000206000820151816000019081610aaa91906127b3565b506020820151816001019081610ac091906127b3565b50905050600754905092915050565b60008073ffffffffffffffffffffffffffffffffffffffff168273ffffffffffffffffffffffffffffffffffffffff1603610b3f576040517f08c379a0000000000000000000000000000000000000000000000000000000008152600401610b36906128f7565b60405180910390fd5b600360008373ffffffffffffffffffffffffffffffffffffffff1673ffffffffffffffffffffffffffffffffffffffff168152602001908152602001600020549050919050565b606060018054610b95906122cb565b80601f0160208091040260200160405190810160405280929190818152602001828054610bc1906122cb565b8015610c0e5780601f10610be357610100808354040283529160200191610c0e565b820191906000526020600020905b815481529060010190602001808311610bf157829003601f168201915b5050505050905090565b610c2a610c23610e41565b838361132c565b5050565b610c3f610c39610e41565b83610f02565b610c7e576040517f08c379a0000000000000000000000000000000000000000000000000000000008152600401610c7590612492565b60405180910390fd5b610c8a84848484611498565b50505050565b6060610c9b82610df6565b6000610ca56114f4565b90506000815111610cc55760405180602001604052806000815250610cf0565b80610ccf8461150b565b604051602001610ce0929190612953565b6040516020818303038152906040525b915050919050565b6000600560008473ffffffffffffffffffffffffffffffffffffffff1673ffffffffffffffffffffffffffffffffffffffff16815260200190815260200160002060008373ffffffffffffffffffffffffffffffffffffffff1673ffffffffffffffffffffffffffffffffffffffff16815260200190815260200160002060009054906101000a900460ff16905092915050565b60007f01ffc9a7000000000000000000000000000000000000000000000000000000007bffffffffffffffffffffffffffffffffffffffffffffffffffffffff1916827bffffffffffffffffffffffffffffffffffffffffffffffffffffffff1916149050919050565b610dff81611290565b610e3e576040517f08c379a0000000000000000000000000000000000000000000000000000000008152600401610e359061256a565b60405180910390fd5b50565b600033905090565b816004600083815260200190815260200160002060006101000a81548173ffffffffffffffffffffffffffffffffffffffff021916908373ffffffffffffffffffffffffffffffffffffffff160217905550808273ffffffffffffffffffffffffffffffffffffffff16610ebc836109bf565b73ffffffffffffffffffffffffffffffffffffffff167f8c5be1e5ebec7d5bd14f71427d1e84f3dd0314c0f7b2291e5b200ac8c7c3b92560405160405180910390a45050565b600080610f0e836109bf565b90508073ffffffffffffffffffffffffffffffffffffffff168473ffffffffffffffffffffffffffffffffffffffff161480610f505750610f4f8185610cf8565b5b80610f8e57508373ffffffffffffffffffffffffffffffffffffffff16610f7684610510565b73ffffffffffffffffffffffffffffffffffffffff16145b91505092915050565b8273ffffffffffffffffffffffffffffffffffffffff16610fb7826109bf565b73ffffffffffffffffffffffffffffffffffffffff161461100d576040517f08c379a0000000000000000000000000000000000000000000000000000000008152600401611004906129e9565b60405180910390fd5b600073ffffffffffffffffffffffffffffffffffffffff168273ffffffffffffffffffffffffffffffffffffffff160361107c576040517f08c379a000000000000000000000000000000000000000000000000000000000815260040161107390612a7b565b60405180910390fd5b61108983838360016115d9565b8273ffffffffffffffffffffffffffffffffffffffff166110a9826109bf565b73ffffffffffffffffffffffffffffffffffffffff16146110ff576040517f08c379a00000000000000000000000000000000000000000000000000000000081526004016110f6906129e9565b60405180910390fd5b6004600082815260200190815260200160002060006101000a81549073ffffffffffffffffffffffffffffffffffffffff02191690556001600360008573ffffffffffffffffffffffffffffffffffffffff1673ffffffffffffffffffffffffffffffffffffffff168152602001908152602001600020600082825403925050819055506001600360008473ffffffffffffffffffffffffffffffffffffffff1673ffffffffffffffffffffffffffffffffffffffff16815260200190815260200160002060008282540192505081905550816002600083815260200190815260200160002060006101000a81548173ffffffffffffffffffffffffffffffffffffffff021916908373ffffffffffffffffffffffffffffffffffffffff160217905550808273ffffffffffffffffffffffffffffffffffffffff168473ffffffffffffffffffffffffffffffffffffffff167fddf252ad1be2c89b69c2b068fc378daa952ba7f163c4a11628f55a4df523b3ef60405160405180910390a461128b83838360016115df565b505050565b60008073ffffffffffffffffffffffffffffffffffffffff166112b2836112d1565b73ffffffffffffffffffffffffffffffffffffffff1614159050919050565b60006002600083815260200190815260200160002060009054906101000a900473ffffffffffffffffffffffffffffffffffffffff169050919050565b6113288282604051806020016040528060008152506115e5565b5050565b8173ffffffffffffffffffffffffffffffffffffffff168373ffffffffffffffffffffffffffffffffffffffff160361139a576040517f08c379a000000000000000000000000000000000000000000000000000000000815260040161139190612ae7565b60405180910390fd5b80600560008573ffffffffffffffffffffffffffffffffffffffff1673ffffffffffffffffffffffffffffffffffffffff16815260200190815260200160002060008473ffffffffffffffffffffffffffffffffffffffff1673ffffffffffffffffffffffffffffffffffffffff16815260200190815260200160002060006101000a81548160ff0219169083151502179055508173ffffffffffffffffffffffffffffffffffffffff168373ffffffffffffffffffffffffffffffffffffffff167f17307eab39ab6107e8899845ad3d59bd9653f200f220920489ca2b5937696c318360405161148b9190611c46565b60405180910390a3505050565b6114a3848484610f97565b6114af84848484611640565b6114ee576040517f08c379a00000000000000000000000000000000000000000000000000000000081526004016114e590612b79565b60405180910390fd5b50505050565b606060405180602001604052806000815250905090565b60606000600161151a846117ff565b01905060008167ffffffffffffffff81111561153957611538611ed2565b5b6040519080825280601f01601f19166020018201604052801561156b5781602001600182028036833780820191505090505b509050600082602001820190505b6001156115ce578080600190039150507f3031323334353637383961626364656600000000000000000000000000000000600a86061a8153600a85816115c2576115c1612b99565b5b04945060008503611579575b819350505050919050565b50505050565b50505050565b6115ef8383611952565b6115fc6000848484611640565b61163b576040517f08c379a000000000000000000000000000000000000000000000000000000000815260040161163290612b79565b60405180910390fd5b505050565b60006116618473ffffffffffffffffffffffffffffffffffffffff16611b6f565b156117f2578373ffffffffffffffffffffffffffffffffffffffff1663150b7a0261168a610e41565b8786866040518563ffffffff167c01000000000000000000000000000000000000000000000000000000000281526004016116c89493929190612c1d565b6020604051808303816000875af192505050801561170457506040513d601f19601f820116820180604052508101906117019190612c7e565b60015b611786573d8060008114611734576040519150601f19603f3d011682016040523d82523d6000602084013e611739565b606091505b50600081510361177e576040517f08c379a000000000000000000000000000000000000000000000000000000000815260040161177590612b79565b60405180910390fd5b805181602001fd5b63150b7a027c0100000000000000000000000000000000000000000000000000000000027bffffffffffffffffffffffffffffffffffffffffffffffffffffffff1916817bffffffffffffffffffffffffffffffffffffffffffffffffffffffff1916149150506117f7565b600190505b949350505050565b600080600090507a184f03e93ff9f4daa797ed6e38ed64bf6a1f010000000000000000831061185d577a184f03e93ff9f4daa797ed6e38ed64bf6a1f010000000000000000838161185357611852612b99565b5b0492506040810190505b6d04ee2d6d415b85acef8100000000831061189a576d04ee2d6d415b85acef810000000083816118905761188f612b99565b5b0492506020810190505b662386f26fc1000083106118c957662386f26fc1000083816118bf576118be612b99565b5b0492506010810190505b6305f5e10083106118f2576305f5e10083816118e8576118e7612b99565b5b0492506008810190505b612710831061191757612710838161190d5761190c612b99565b5b0492506004810190505b6064831061193a57606483816119305761192f612b99565b5b0492506002810190505b600a8310611949576001810190505b80915050919050565b600073ffffffffffffffffffffffffffffffffffffffff168273ffffffffffffffffffffffffffffffffffffffff16036119c1576040517f08c379a00000000000000000000000000000000000000000000000000000000081526004016119b890612cf7565b60405180910390fd5b6119ca81611290565b15611a0a576040517f08c379a0000000000000000000000000000000000000000000000000000000008152600401611a0190612d63565b60405180910390fd5b611a186000838360016115d9565b611a2181611290565b15611a61576040517f08c379a0000000000000000000000000000000000000000000000000000000008152600401611a5890612d63565b60405180910390fd5b6001600360008473ffffffffffffffffffffffffffffffffffffffff1673ffffffffffffffffffffffffffffffffffffffff16815260200190815260200160002060008282540192505081905550816002600083815260200190815260200160002060006101000a81548173ffffffffffffffffffffffffffffffffffffffff021916908373ffffffffffffffffffffffffffffffffffffffff160217905550808273ffffffffffffffffffffffffffffffffffffffff16600073ffffffffffffffffffffffffffffffffffffffff167fddf252ad1be2c89b69c2b068fc378daa952ba7f163c4a11628f55a4df523b3ef60405160405180910390a4611b6b6000838360016115df565b5050565b6000808273ffffffffffffffffffffffffffffffffffffffff163b119050919050565b6000604051905090565b600080fd5b600080fd5b60007fffffffff0000000000000000000000000000000000000000000000000000000082169050919050565b611bdb81611ba6565b8114611be657600080fd5b50565b600081359050611bf881611bd2565b92915050565b600060208284031215611c1457611c13611b9c565b5b6000611c2284828501611be9565b91505092915050565b60008115159050919050565b611c4081611c2b565b82525050565b6000602082019050611c5b6000830184611c37565b92915050565b600081519050919050565b600082825260208201905092915050565b60005b83811015611c9b578082015181840152602081019050611c80565b60008484015250505050565b6000601f19601f8301169050919050565b6000611cc382611c61565b611ccd8185611c6c565b9350611cdd818560208601611c7d565b611ce681611ca7565b840191505092915050565b60006020820190508181036000830152611d0b8184611cb8565b905092915050565b6000819050919050565b611d2681611d13565b8114611d3157600080fd5b50565b600081359050611d4381611d1d565b92915050565b600060208284031215611d5f57611d5e611b9c565b5b6000611d6d84828501611d34565b91505092915050565b600073ffffffffffffffffffffffffffffffffffffffff82169050919050565b6000611da182611d76565b9050919050565b611db181611d96565b82525050565b6000602082019050611dcc6000830184611da8565b92915050565b611ddb81611d96565b8114611de657600080fd5b50565b600081359050611df881611dd2565b92915050565b60008060408385031215611e1557611e14611b9c565b5b6000611e2385828601611de9565b9250506020611e3485828601611d34565b9150509250929050565b600080600060608486031215611e5757611e56611b9c565b5b6000611e6586828701611de9565b9350506020611e7686828701611de9565b9250506040611e8786828701611d34565b9150509250925092565b60006040820190508181036000830152611eab8185611cb8565b90508181036020830152611ebf8184611cb8565b90509392505050565b600080fd5b600080fd5b7f4e487b7100000000000000000000000000000000000000000000000000000000600052604160045260246000fd5b611f0a82611ca7565b810181811067ffffffffffffffff82111715611f2957611f28611ed2565b5b80604052505050565b6000611f3c611b92565b9050611f488282611f01565b919050565b600067ffffffffffffffff821115611f6857611f67611ed2565b5b611f7182611ca7565b9050602081019050919050565b82818337600083830152505050565b6000611fa0611f9b84611f4d565b611f32565b905082815260208101848484011115611fbc57611fbb611ecd565b5b611fc7848285611f7e565b509392505050565b600082601f830112611fe457611fe3611ec8565b5b8135611ff4848260208601611f8d565b91505092915050565b6000806040838503121561201457612013611b9c565b5b600083013567ffffffffffffffff81111561203257612031611ba1565b5b61203e85828601611fcf565b925050602083013567ffffffffffffffff81111561205f5761205e611ba1565b5b61206b85828601611fcf565b9150509250929050565b61207e81611d13565b82525050565b60006020820190506120996000830184612075565b92915050565b6000602082840312156120b5576120b4611b9c565b5b60006120c384828501611de9565b91505092915050565b6120d581611c2b565b81146120e057600080fd5b50565b6000813590506120f2816120cc565b92915050565b6000806040838503121561210f5761210e611b9c565b5b600061211d85828601611de9565b925050602061212e858286016120e3565b9150509250929050565b600067ffffffffffffffff82111561215357612152611ed2565b5b61215c82611ca7565b9050602081019050919050565b600061217c61217784612138565b611f32565b90508281526020810184848401111561219857612197611ecd565b5b6121a3848285611f7e565b509392505050565b600082601f8301126121c0576121bf611ec8565b5b81356121d0848260208601612169565b91505092915050565b600080600080608085870312156121f3576121f2611b9c565b5b600061220187828801611de9565b945050602061221287828801611de9565b935050604061222387828801611d34565b925050606085013567ffffffffffffffff81111561224457612243611ba1565b5b612250878288016121ab565b91505092959194509250565b6000806040838503121561227357612272611b9c565b5b600061228185828601611de9565b925050602061229285828601611de9565b9150509250929050565b7f4e487b7100000000000000000000000000000000000000000000000000000000600052602260045260246000fd5b600060028204905060018216806122e357607f821691505b6020821081036122f6576122f561229c565b5b50919050565b7f4552433732313a20617070726f76616c20746f2063757272656e74206f776e6560008201527f7200000000000000000000000000000000000000000000000000000000000000602082015250565b6000612358602183611c6c565b9150612363826122fc565b604082019050919050565b600060208201905081810360008301526123878161234b565b9050919050565b7f4552433732313a20617070726f76652063616c6c6572206973206e6f7420746f60008201527f6b656e206f776e6572206f7220617070726f76656420666f7220616c6c000000602082015250565b60006123ea603d83611c6c565b91506123f58261238e565b604082019050919050565b60006020820190508181036000830152612419816123dd565b9050919050565b7f4552433732313a2063616c6c6572206973206e6f7420746f6b656e206f776e6560008201527f72206f7220617070726f76656400000000000000000000000000000000000000602082015250565b600061247c602d83611c6c565b915061248782612420565b604082019050919050565b600060208201905081810360008301526124ab8161246f565b9050919050565b7f4e4654206e6f7420657869737400000000000000000000000000000000000000600082015250565b60006124e8600d83611c6c565b91506124f3826124b2565b602082019050919050565b60006020820190508181036000830152612517816124db565b9050919050565b7f4552433732313a20696e76616c696420746f6b656e2049440000000000000000600082015250565b6000612554601883611c6c565b915061255f8261251e565b602082019050919050565b6000602082019050818103600083015261258381612547565b9050919050565b7f4e487b7100000000000000000000000000000000000000000000000000000000600052601160045260246000fd5b60006125c482611d13565b91507fffffffffffffffffffffffffffffffffffffffffffffffffffffffffffffffff82036125f6576125f561258a565b5b600182019050919050565b60008190508160005260206000209050919050565b60006020601f8301049050919050565b60008160020a8302905092915050565b6000600883026126667fffffffffffffffffffffffffffffffffffffffffffffffffffffffffffffffff82612626565b6126708683612626565b95508019841693508086168417925050509392505050565b6000819050919050565b60006126ad6126a86126a384611d13565b612688565b611d13565b9050919050565b6000819050919050565b6126c783612692565b6126db6126d3826126b4565b848454612636565b825550505050565b600090565b6126f06126e3565b6126fb8184846126be565b505050565b5b8181101561271f576127146000826126e8565b600181019050612701565b5050565b601f8211156127645761273581612601565b61273e84612616565b8101602085101561274d578190505b61276161275985612616565b830182612700565b50505b505050565b60008160020a8304905092915050565b600061278a60001984600802612769565b1980831691505092915050565b60006127a38383612779565b9150826002028217905092915050565b6127bc82611c61565b67ffffffffffffffff8111156127d5576127d4611ed2565b5b6127df82546122cb565b6127ea828285612723565b600060209050601f83116001811461281d576000841561280b578287015190505b6128158582612797565b86555061287d565b601f19841661282b86612601565b60005b828110156128535784890151825560018201915060208501945060208101905061282e565b86831015612870578489015161286c601f891682612779565b8355505b6001600288020188555050505b505050505050565b7f4552433732313a2061646472657373207a65726f206973206e6f74206120766160008201527f6c6964206f776e65720000000000000000000000000000000000000000000000602082015250565b60006128e1602983611c6c565b91506128ec82612885565b604082019050919050565b60006020820190508181036000830152612910816128d4565b9050919050565b600081905092915050565b600061292d82611c61565b6129378185612917565b9350612947818560208601611c7d565b80840191505092915050565b600061295f8285612922565b915061296b8284612922565b91508190509392505050565b7f4552433732313a207472616e736665722066726f6d20696e636f72726563742060008201527f6f776e6572000000000000000000000000000000000000000000000000000000602082015250565b60006129d3602583611c6c565b91506129de82612977565b604082019050919050565b60006020820190508181036000830152612a02816129c6565b9050919050565b7f4552433732313a207472616e7366657220746f20746865207a65726f2061646460008201527f7265737300000000000000000000000000000000000000000000000000000000602082015250565b6000612a65602483611c6c565b9150612a7082612a09565b604082019050919050565b60006020820190508181036000830152612a9481612a58565b9050919050565b7f4552433732313a20617070726f766520746f2063616c6c657200000000000000600082015250565b6000612ad1601983611c6c565b9150612adc82612a9b565b602082019050919050565b60006020820190508181036000830152612b0081612ac4565b9050919050565b7f4552433732313a207472616e7366657220746f206e6f6e20455243373231526560008201527f63656976657220696d706c656d656e7465720000000000000000000000000000602082015250565b6000612b63603283611c6c565b9150612b6e82612b07565b604082019050919050565b60006020820190508181036000830152612b9281612b56565b9050919050565b7f4e487b7100000000000000000000000000000000000000000000000000000000600052601260045260246000fd5b600081519050919050565b600082825260208201905092915050565b6000612bef82612bc8565b612bf98185612bd3565b9350612c09818560208601611c7d565b612c1281611ca7565b840191505092915050565b6000608082019050612c326000830187611da8565b612c3f6020830186611da8565b612c4c6040830185612075565b8181036060830152612c5e8184612be4565b905095945050505050565b600081519050612c7881611bd2565b92915050565b600060208284031215612c9457612c93611b9c565b5b6000612ca284828501612c69565b91505092915050565b7f4552433732313a206d696e7420746f20746865207a65726f2061646472657373600082015250565b6000612ce1602083611c6c565b9150612cec82612cab565b602082019050919050565b60006020820190508181036000830152612d1081612cd4565b9050919050565b7f4552433732313a20746f6b656e20616c7265616479206d696e74656400000000600082015250565b6000612d4d601c83611c6c565b9150612d5882612d17565b602082019050919050565b60006020820190508181036000830152612d7c81612d40565b905091905056fea2646970667358221220ee7c9096247b1c1a036c74be92e003ef42a13128d17979b96baf9ab222a87d4464736f6c63430008130033",
  "immutableReferences": {},
  "source": "// SPDX-License-Identifier: MIT\n\npragma solidity ^0.8.19;\n\nimport \"@openzeppelin/contracts/token/ERC721/ERC721.sol\";\nimport \"@openzeppelin/contracts/access/Ownable.sol\"; \n\n\ncontract NFT is ERC721{\n    struct MyNFT{\n        string name;\n        string description;\n    }\n    \n    mapping(uint256 => MyNFT) public nfts;\n    uint256 private _tokenID = 0;\n    constructor() ERC721(\"MyNFT\",\"NFT\"){}\n    function createNFT(string memory name, string memory description) external returns(uint256){\n        _tokenID++;\n        _safeMint(msg.sender,_tokenID);\n        nfts[_tokenID] = MyNFT({\n            name: name,\n            description: description\n        });\n        return _tokenID;\n    }\n    function getNFT(uint256 id) external view returns(string memory,string memory){\n        require(_exists(id),\"NFT not exist\");\n        string memory my_name = nfts[id].name;\n        string memory my_description = nfts[id].description;\n        return (my_name,my_description);\n    }\n\n}",
  "sourcePath": "/Users/fan/Desktop/NFT-Market/contracts/NFT.sol",
  "compiler": {
    "name": "solc",
    "version": "0.8.19+commit.7dd6d404.Emscripten.clang"
  },
  "schemaVersion": "3.4.13",
  "updatedAt": "2023-05-07T08:26:44.169Z",
  "networkType": "ethereum",
  "devdoc": {
    "events": {
      "Approval(address,address,uint256)": {
        "details": "Emitted when `owner` enables `approved` to manage the `tokenId` token."
      },
      "ApprovalForAll(address,address,bool)": {
        "details": "Emitted when `owner` enables or disables (`approved`) `operator` to manage all of its assets."
      },
      "Transfer(address,address,uint256)": {
        "details": "Emitted when `tokenId` token is transferred from `from` to `to`."
      }
    },
    "kind": "dev",
    "methods": {
      "approve(address,uint256)": {
        "details": "See {IERC721-approve}."
      },
      "balanceOf(address)": {
        "details": "See {IERC721-balanceOf}."
      },
      "getApproved(uint256)": {
        "details": "See {IERC721-getApproved}."
      },
      "isApprovedForAll(address,address)": {
        "details": "See {IERC721-isApprovedForAll}."
      },
      "name()": {
        "details": "See {IERC721Metadata-name}."
      },
      "ownerOf(uint256)": {
        "details": "See {IERC721-ownerOf}."
      },
      "safeTransferFrom(address,address,uint256)": {
        "details": "See {IERC721-safeTransferFrom}."
      },
      "safeTransferFrom(address,address,uint256,bytes)": {
        "details": "See {IERC721-safeTransferFrom}."
      },
      "setApprovalForAll(address,bool)": {
        "details": "See {IERC721-setApprovalForAll}."
      },
      "supportsInterface(bytes4)": {
        "details": "See {IERC165-supportsInterface}."
      },
      "symbol()": {
        "details": "See {IERC721Metadata-symbol}."
      },
      "tokenURI(uint256)": {
        "details": "See {IERC721Metadata-tokenURI}."
      },
      "transferFrom(address,address,uint256)": {
        "details": "See {IERC721-transferFrom}."
      }
    },
    "version": 1
  },
  "userdoc": {
    "kind": "user",
    "methods": {},
    "version": 1
  }
}